:040000008A15DC2958
:06000600000000000800EC
:10000C000F3083120313FC004730FD00FD0B0C284E
:0A001C00FC0B0C2800000000080097
:0E002600213083120313FD00FD0B1728080084
:1000340083120313F801F9011030FC00710DF80D5F
:10004400F90D7408F8027508031C750FF9020318FA
:1000540032287408F80775080318750FF907031098
:0A006400F00DF10DFC0B2028080040
:10006E0083160313C51B3E288312061040288312E5
:10007E0006148316451B46288312861048288312C1
:10008E0086148316C51A4E28831206115028831221
:10009E0006158316451A5628831286115828831280
:1000AE0086156D185C2806175D28061306160320A4
:1000BE0006128316C5196628831206106828831245
:1000CE000614831645196E28831286107028831223
:1000DE0086148316C5187628831206117828831283
:1000EE000615831645187E288312861180288312E2
:1000FE0086156D1884280617852806130616032004
:0E010E0006126D1C8C2806208D281320080078
:10011C0083120313FB01FA01F901F801A001730D1D
:10012C00F80D7408F8027508031C750FF9027608AF
:10013C00031C760FFA027708031C770FFB020001F1
:10014C00031C0130A002F30D0730FC00730DF80DF9
:10015C00F90DFA0DFB0DA00D7408731CC728F802DD
:10016C007508031C750FF9027608031C760FFA024A
:10017C007708031C770FFB020001031C0130A0025F
:10018C00D828F80775080318750FF90776080318AF
:10019C00760FFA0777080318770FFB07000103188F
:1001AC000130A007F30DFC0BAC28720DF80DF90D06
:1001BC00FA0DFB0DA00D7408731CF628F8027508D7
:1001CC00031C750FF9027608031C760FFA027708E8
:1001DC00031C770FFB020001031C0130A00207294E
:1001EC00F80775080318750FF90776080318760FCA
:1001FC00FA0777080318770FFB0700010318013083
:10020C00A007F20D0730FC00720DF80DF90DFA0D78
:10021C00FB0DA00D7408721C2529F8027508031C2F
:10022C00750FF9027608031C760FFA027708031C87
:10023C00770FFB020001031C0130A0023629F807DE
:10024C0075080318750FF90776080318760FFA0767
:10025C0077080318770FFB07000103180130A0077C
:10026C00F20DFC0B0A29710DF80DF90DFA0DFB0DB1
:10027C00A00D7408721C5429F8027508031C750F24
:10028C00F9027608031C760FFA027708031C770F25
:10029C00FB020001031C0130A0026529F807750858
:1002AC000318750FF90776080318760FFA07770805
:1002BC000318770FFB07000103180130A007F10D9D
:1002CC000730FC00710DF80DF90DFA0DFB0DA00DAA
:1002DC007408711C8329F8027508031C750FF90248
:1002EC007608031C760FFA027708031C770FFB02C3
:1002FC000001031C0130A0029429F80775080318AB
:10030C00750FF90776080318760FFA0777080318A4
:10031C00770FFB07000103180130A007F10DFC0B50
:10032C006829700DF80DF90DFA0DFB0DA00D740870
:10033C00711CB229F8027508031C750FF9027608B6
:10034C00031C760FFA027708031C770FFB020001DF
:10035C00031C0130A002C329F80775080318750F98
:10036C00F90776080318760FFA0777080318770F42
:10037C00FB07000103180130A007F00D0730FC004B
:10038C00700DF80DF90DFA0DFB0DA00D7408701C15
:10039C00E129F8027508031C750FF9027608031C95
:1003AC00760FFA027708031C770FFB020001031C7F
:1003BC000130A002F229F80775080318750FF90728
:1003CC0076080318760FFA0777080318770FFB07E0
:1003DC00000103180130A007F00DFC0BC6297018A2
:1003EC00052A7408F80775080318750FF9077608BD
:1003FC000318760FFA0777080318770FFB07080026
:10040C0083160313C003C0034008003C0318132ACF
:10041C00C0030000000000000A2A000000000000D9
:06042C00000000000800C2
:1004320083160313C301053043020318272A430816
:100442004207840020308000C30A1C2A4308420766
:1004520084008001C30343084207C4000A30F40049
:10046200F5014008F0004108F1001A207808F00078
:100472007908F1003030F0078316440884007008D0
:1004820080000A30F400F5014008F0004108F10054
:100492001A2070088316C0007108C100003071066E
:1004A200031D552A00307006031D582A5A2AC30319
:0404B2002C2A0800E8
:0E04B6008312031363088A00620882000800A4
:1004C400403083120313F0001F30F100F201F301F6
:0204D40008001E
:1004D600831603131419792A1F301105F1007108C8
:1004E600003A031D792A0130F0007A2AF00108004B
:1004F600831203136D1083164008C50037206D1450
:020506000800EB
:10050800831203132230FC00F801F901FA01FB0100
:10051800FC030319BA2A0310FB0CFA0CF90CF80CAB
:10052800F30CF20CF10CF00C031C8C2AFC030319DD
:10053800AC2A7408F80775080318750FF9077608C8
:100548000318760FFA0777080318770FFB07902A26
:100558007408F80775080318750FF9077608031863
:0E056800760FFA0777080318770FFB070800D5
:10057600710DF80DF90D7408F8027508031C750F56
:10058600F902F00DF10D0F30FC00710DF80DF90DAB
:100596007408701CD42AF8027508031C750FF9023A
:1005A600D92AF80775080318750FF907F00DF10D2C
:1005B600FC0BC82A7018E52A7408F8077508031892
:0805C600750FF90700000800A1
:0E05CE008312031363088A006208820008008B
:1005DC00831203137408003A031DFD2A7508003AB0
:1005EC00031DFD2AFF30F0007F30F100562B8312E3
:1005FC000313FD01F901F8017108700403190034AB
:10060C0071087506FA00FA1BFD09FB01F51F132B87
:10061C00F409F509F40A0319F50AF11F1A2BF0096C
:10062C00F109F00A0319F10A71087504FA00FA1BB2
:10063C002F2BBB227B18422BFD1F0034F009F10934
:10064C00F00A0319F10AF809F909F80A0319F90A69
:10065C000034F51F3E2BF11B3A2B7108F900700882
:10066C00F800F101F001222BF101F001F00A003445
:10067C00F109F009FB0A1F2BF80A0319F90A74088F
:10068C007802031D222B75087902031D222BF90118
:10069C00F801F00A0319F10AF11F222B0000FF34B4
:0206AC00080044
:1006AE00023083120313FC004930FD00FD0B5D2B5D
:0A06BE00FC0B5D2B0000000008009B
:1006C800762B803083160313B400892BC030B40016
:1006D800892B9430B400892BD430B400892B803016
:1006E800B400892B831603133408013A0319652BC8
:1006F8003408023A03196A2B3408033A03196D2B9C
:100708003408043A0319702B732B3503F0003408AE
:10071800F0077008B4007008C50037206D10831604
:10072800B70137083607840000080319A42B3708D7
:10073800360784000008C0007B228316B70A952B71
:0607480083126D1408008D
:10074E0083160313B901BA013408BB003508BC0087
:10075E0080303506F00080307002031DB82B00305B
:10076E0034020318C62B0130B9000030BA00340829
:10077E00003CBB003508031C013EBC01BC023B081B
:10078E00C0003C08C1003608C20019220630B7006E
:10079E000030B8003808003C031DD72B3708003C4A
:1007AE000318F22B37083607F20001303702F0003B
:1007BE000030031C013E3802F10070083607840039
:1007CE000008F00072088400700880000130B70243
:1007DE00031CB803D12B3608840020308000390862
:1007EE003A040319102CB701B801370836078400F4
:1007FE000008203A031D072CB70A0319B80AFC2B70
:10080E000130B702031CB8033708360784002D30B9
:04081E00800008004E
:100822008312031357088316B500831258088316E0
:10083200B600831259088316B70083125A0883162A
:10084200B80083128C118316911583128C19512CC6
:100852005708580459045A040319502C83163508B2
:10086200360437043804031D462C24088400033060
:100872008000840A22088312E2008316230883126E
:10088200E3005B228A110A12512C013083160313F2
:10089200B502031CB602031CB702031CB802262CC5
:1008A2000313831213088316B40083122108003A3B
:1008B200031D5E2C83169116602C831691128312EF
:1008C2008C1183161116831257088316B5008312F2
:1008D20058088316B600831259088316B70083128C
:1008E2005A088316B80083128C199F2C5708580493
:1008F20059045A0403199E2C83163508360437040A
:100902003804031D942C2408840003308000840AD8
:1009120022088312E200831623088312E3005B227B
:100922008A110A129F2C013083160313B502031C8D
:10093200B602031CB702031CB802742C83160313FD
:060942003408F00008007B
:100948008312031357088316B600831258088316B8
:10095800B700831259088316B80083125A08831601
:10096800B900B401B5013508123C031DBD2C34088B
:100978008E3C031CC82C6B2270080319C42CC82C8D
:10098800B40A0319B50AB72C12303502031DCE2C50
:100998008F303402031CD32C7B30F000042D11144B
:1009A8008316111C032D83125708580459045A043E
:1009B8000319022D83163608370438043904031D39
:1009C800F92C2408840005308000840A2208831248
:1009D800E200831623088312E3005B228A110A12BD
:1009E800013083120313F000042D01308316B60280
:1009F800031CB702031CB802031CB902D42CF00173
:020A08000800E4
:100A0A00172D803083160313B4002A2DC030B4008A
:100A1A002A2D9430B4002A2DD430B4002A2D8030E7
:100A2A00B4002A2D831603133408013A0319062D3C
:100A3A003408023A03190B2D3408033A03190E2D10
:100A4A003408043A0319112D142D3503F000340823
:100A5A00F0077008B40083126D1470088316C5007D
:100A6A0037206D1083163608C50037206D1408002C
:080A7A00831603131115080097
:100A82006222E830F4000330F500F601F701842217
:100A920070088316BC007108BD007208BE0073089E
:100AA200BF003408F4003508F500F601F7018E2086
:100AB20070088316BC007108BD007208BE0073087E
:100AC200BF007008F5007108F6007208F70073089D
:100AD200F800F80CF70CF60CF50CF813F80CF70C00
:100AE200F60CF50CF8137508F0007608F10077089B
:100AF200F2007808F300F30CF20CF10CF00CF31393
:100B02007008B8007108B900622283163608F40032
:100B12003708F500F601F701842283163808F90038
:100B22003908FA00FB01FC010330F8007908F400EF
:100B32007A08F5007B08F6007C08F70078080319AC
:100B4200A92DF40DF50DF60DF70D7410FF3EA02D35
:100B52008E2070088316BC007108BD007208BE00AA
:100B62007308BF000A30F4000030F5003808F000C6
:100B72003908F1001A2070088316B8007108B9000C
:100B820000307102031DC72D033070020318CA2DF5
:100B92001C2E200884003F08003C031DDA2D3E086D
:100BA200003C031DDA2D3D08003C031DDA2D3C08F4
:100BB200003C0318192E83126F088004831639082B
:100BC2000319F32DBA01BB0100303B02031DEB2DCB
:100BD20039083A020318F32DC0010622BA0A031992
:100BE200BB0AE52D3808C000062283126E08800574
:100BF2008316390803190D2EBA01BB0100303B02DE
:100C0200031D052E39083A0203180D2EC0010622D3
:100C1200BA0A0319BB0AFF2D3808C00006220130A8
:100C2200BC02031CBD02031CBE02031CBF02CC2D6E
:080C320083126E088005080022
:100C3A0083160313B5013508340784000008031925
:100C4A002F2E3508340784000008C0007B22831643
:060C5A00B50A202E08007F
:100C6000831203138C112208930057088316B400D3
:100C7000831258088316B500831259088316B600EC
:100C800083125A088316B7008316141D732E83121D
:100C90005708580459045A040319722E831634084D
:100CA000350436043704031D692E240884000430FB
:100CB0008000840A22088312E2008316230883122C
:100CC000E3005B228A110A12013083120313F00041
:100CD000B92E01308316B402031CB502031CB60200
:100CE000031CB702442E831257088316B4008312E4
:100CF00058088316B500831259088316B60083126C
:100D00005A088316B70083128C19B12E570858045D
:100D100059045A040319B02E8316340835043604D6
:100D20003704031DA72E2408840004308000840AA1
:100D300022088312E200831623088312E3005B2259
:100D40008A110A12013083120313F000B92E013008
:100D50008316B402031CB502031CB602031CB702BF
:100D6000832E8316111BB62EF001B92E11150230F9
:040D7000F000080087
:100D740083120313D001D101CF01D201A424831221
:100D840003135308A200302683120313A201302652
:100D9400513083120313A20030263D25B630FC00E7
:100DA400D030FD00FD0BD42EFC0BD42E0000A42467
:100DB400831203135308A200302602308312031354
:100DC400A20030263D25B630FC00D030FD00FD0BDE
:100DD400E92EFC0BE92E0000A424831203132E0831
:100DE400A2003026013083120313A10011247008DD
:100DF4008312CF00A101112470088312D2003D2573
:100E0400B630FC00D030FD00FD0B062FFC0B062F86
:100E1400000083124F08F100F0015208F007031894
:100E2400F10A7008D0007108D10070088316B4006C
:0C0E34007108B5005B30B600A723080071
:100E4000013083160313C500372001308316B40028
:100E50000130B5002330B600642302308316B4009D
:100E60000130B5002F30B60064231530FB004B3045
:100E7000FC00BE30FD00FD0B3B2FFC0B3B2FFB0BA2
:100E80003B2F000001308316C50037200130831648
:0E0E9000B4000130B5004530B6006423080000
:100E9E00831603132E08A0002F08F1000130F00076
:100EAE00710803195E2FF00D7010FF3E582F700859
:100EBE008312EF00F0097008EE00803083162E07C3
:0E0ECE008400700880058413700880050800F9
:100EDC00D03083160313B4000730B5006430B6006D
:080EEC000030B70041250800A9
:100EF4006B3083160313AB000230AC000030AD003E
:100F04000030A430A8000430A9000030AA0000304A
:100F1400FF30A500FF30A6000030A70000301130DC
:100F24008312EA000430EB002130EC000030303052
:100F3400E7000630E8002230E90000303D30E400EC
:100F44000530E5000030E6000030831614139413D6
:0C0F54000716871538308312940008003F
:100F600083160313B3012F08F1000130F00071085C
:100F70000319BE2FF00D7010FF3EB82F7008B2009D
:100F80002E08840070080005F10071080130031D6F
:100F90000030F0003108F0060319E72F3008003C5C
:100FA0000318D72F572357238316B003CE2F2E08AD
:100FB000840032080005F10071080130031D003083
:100FC000F0003108F0060319E72FFF30B3003308B3
:040FD000F000080025
:100FD400A03083160313B4000F30B5006430B6009C
:080FE4000030B70041250800B0
:10100000013083160313C5008A1137208A15013079
:101010008316B4000130B5003C30B6008A11642359
:101020008A156430F4000030F5005008F0005108D3
:10103000F1008A11EE228A150A30F4000030F50022
:101040008A11EE228A157808F0007908F1008030C4
:10105000F200803071067202031D30287008003CD7
:101060000318942801308316B4000930B5006430A9
:10107000F4000030F50083125008F0005108F10030
:101080008A11EE228A150A30F4000030F5008A1128
:10109000EE228A157808F0007908F10030307007E8
:1010A0008316B6008A1105258A1501308316B4000F
:1010B0000A30B5000A30F4000030F5008312500801
:1010C000F0005108F1008A11EE228A150A30F4006E
:1010D0000030F5008A11EE228A157808F0007908B0
:1010E000F100303070078316B6008A1105258A1585
:1010F00001308316B4000B30B5000A30F400003024
:10110000F50083125008F0005108F1008A11EE2218
:101110008A157808F0007908F100303070078316DE
:10112000B6008A1105258A156430F4000030F500F8
:101130005008F0005108F1008A11EE228A150A3099
:10114000F4000030F5008A11EE228A157808F000CC
:101150007908F10000307106031DB02800307006D8
:10116000031D4C290A30F4000030F5005008F0004F
:101170005108F1008A11EE228A150A30F40000307D
:10118000F5008A11EE228A157808F0007908F1003E
:101190008030F200803071067202031DD128700881
:1011A000003C0318122901308316B4000930B50041
:1011B0000A30F4000030F50083125008F0005108A6
:1011C000F1008A11EE228A150A30F4000030F50091
:1011D0008A11EE228A157808F0007908F100303083
:1011E00070078316B6008A1105258A15013083160B
:1011F000B4000A30B5000A30F4000030F500831264
:101200005008F0005108F1008A11EE228A15780882
:10121000F0007908F100303070078316B6008A11AB
:1012200005258A150A30F4000030F5005008F0005A
:101230005108F1008A11EE228A150A30F4000030BC
:10124000F5008A11EE228A157808F0007908F1007D
:1012500000307106031D2E2900307006031D4C2935
:1012600001308316B4000930B5000A30F4000030B4
:10127000F50083125008F0005108F1008A11EE22A7
:101280008A157808F0007908F1003030700783166D
:10129000B6008A1105258A1554308316B4008A11C8
:0612A0001D268A1508005E
:1012A60083160313061206138611061186100610FE
:1012B60083120612061306108610061186118A116D
:1012C60006208A158A1106208A158A1106208A1593
:1012D6000615861506168A1103208A1506128A1126
:1012E60006208A1506168A1103208A1506128A1107
:1012F60006208A1506168A1103208A1506128A11F7
:1013060006208A15861106168A1103208A150612EA
:101316008A1106208A1506168A1103208A150612D6
:101326000611061406168A1103208A1506128A115A
:1013360006208A150610861506168A1103208A15B8
:101346000612861106168A1103208A1506128A11BC
:1013560006208A1506168A1103208A150612861596
:1013660006168A1103208A1506128A1106208A1586
:10137600861106168A1103208A150612061486148B
:101386000615861506168A1103208A1506128A1175
:0813960006208A156D14080001
:10139E008A11E7228A150A128000840AE20A0319CA
:0A13AE00E30AF003031DCF29080035
:1013B8009822FF308316031388008312ED1008303B
:1013C8008316AE00AF010130B000B1018A11B02719
:1013D8008A1570080319F2298312ED14532101307C
:1013E8008316C5008A1137208A150C308316C5006C
:1013F8008A1137208A151430831693008A117A27A8
:101408008A15FE3083168500FE308312850005306C
:101418008316AE00AF018A114F278A158A116E27ED
:101428008A1583120313ED181C2A8A1120278A159E
:1014380008308316AE00AF010130B0000130B100B2
:101448008A11B0278A15700803192C2A0130A100C7
:1014580021080319432A0830AE00AF010130B0005B
:10146800B1018A11B0278A1570080319432A8A1115
:10147800BA268A158A11EA278A150020A101831243
:10148800ED1C582A8A11BA268A1500200630FB005E
:101498001330FC00AD30FD00FD0B502AFC0B502A28
:0C14A800FB0B502A000000001C2A592AEF
:1015300023308400383083120313F0005F30E20060
:081540000A30E300CF2108008E
:1014BE0055346C3474347234613473346F346E3426
:0614CE00693463340034B0
:0214D400E13401
:1014D6003234303443344D3420342D3420343634D1
:0A14E6003034303443344D34003408
:1014F0004C3465346E347434673468343D3420348D
:021500000034B5
:101502005034723465347334733420344B3465345C
:0415120079340034F4
:0215160000349F
:041518000034003467
:02151C00003499
:02151E00E034B7
:0615200043344D34003499
:081526000034003400340034ED
:02400E004A2F37
:00000001FF
