:02000000512885
:0E0006008312031323088A00220882000800D8
:1000140003208A110A128000840AA20A0319A30A7F
:08002400F003031D0A28080087
:10002C008316031398169030831298008316871743
:10003C00071383128C1E25281A08F0001F280800AD
:10004C00831203137008F100F0010830FC007108F2
:10005C00F40C03183528FC0B2E28F1010034031086
:10006C003A28F40C0318F107F10CF00CFC0B3728B0
:02007C0008007A
:0E007E000030831203138C1A0130F0000800CA
:10008C00831203131A08F100981C4E281812181624
:06009C007108F0000800ED
:1000A20083120313A001333083169900181516200A
:1000B20083168601831286013F2070080319872860
:1000C20046207008A100303070020130031C00305D
:1000D200F2007008393C0130031C0030F100710855
:1000E2007205F000031980282008F0000A30F4009D
:1000F200262030302102F10071087007A00021088B
:100102000D3A031D872820088600A0015D28882853
:02400E004A2F37
:00000001FF
