:10000000B601AE28A70088110811081183168811BF
:10001000081108110F30880583122708B6182E28FA
:100020003A30A10098305F203330A60042201330D0
:10003000A10088305F20422064305E20422064307E
:100040005E202230A600422028302D200C302D20AA
:1000500006302D20B61427082E283614A600361C8C
:100060003C280811033C031C412841200730A10013
:10007000D0305F20031408003614FE3C0319A92871
:100080000815361C361088150F3088052608F039FB
:1000900088048811A60E3618422832305E200314D8
:1000A0000800A301A200FF30A207031CA307031C42
:1000B000A9280330A100E3305F205328A101F43EBA
:1000C000A000A109FE30031C6828A00703186528BA
:1000D000A0076400A10F6528000020186F282018D1
:1000E00071280800A101A301A20003307C28A1010E
:1000F000A301A20006307C28A80023082102031DCA
:10010000832822082002043003180130031902302A
:100110002805031DFF30A9280038031DFF30040502
:10012000031DFF30A9281030A800A101A001A70CD1
:10013000A60C031CA1282208A00723080318230FDC
:10014000A107A10CA00CA50CA40CA80B97282408AF
:10015000A92883130313831264000800FE308A0168
:10016000022001308A01022054308A0102207930B5
:100170008A01022070308A01022069308A0102203F
:100180006E308A01022067308A01022020308A0105
:10019000022057308A01022069308A01022074301F
:1001A0008A01022068308A01022020308A01022060
:1001B00055308A01022053308A01022042308A01E0
:1001C00002208316BF3087000C30990083129030D4
:1001D0009800903098008316203098008601831292
:1001E00086010330A300E8308A015220FE308A01E4
:1001F000022001308A0102200130CE00640011305B
:100200004E028A110A1203180F294E083C3E840040
:1002100020308000CE0A8A110A12031DFE28CE016A
:100220008A110A121F2164004F08003C8A110A1229
:10023000031910298A110A1228218A011029CF01D5
:1002400064008A110A128C1E27291A08CF000800A0
:1002500064008A110A120C1E28294F0899004F08C1
:10026000A00030308A017220B2004F08A00039305F
:100270008A017720B4003208840034088A018C2077
:10028000B400B5006400340835048A110A12031959
:100290005E295008A600A7010A30A200A3018A0126
:1002A0009320B2002508B300D0304F07B400FF30D0
:1002B0000318013EB50032083407D00064004F082F
:1002C0000D3C8A110A12031D682950088600D001CE
:0802D000080063008A0169299E
:02400E00753FFC
:00000001FF
