:100000001B28A101A301A20002300628A800230892
:100010002102031D0D28220820020430031801309C
:10002000031902302805031DFF301628831303131C
:100030008312640008008810831688108312003031
:10004000061A0130A00001308A010120B200003000
:10005000081A0130A00000308A010120B4003208E3
:100060003405B400B5016400340835048A110A125D
:1000700003193E2888148316881083120030061A4C
:100080000130A00000308A010120B2000030081ABF
:100090000130A00001308A010120B400320834058B
:1000A000B400B5016400340835048A110A1203193A
:1000B0005D2888108316881083128A011F28630028
:0400C0008A015F282A
:02400E00753FFC
:00000001FF
