:0200000098293D
:06000600000000000800EC
:0E000C00213083120313FD00FD0B0A280800AB
:10001A000F3083120313FC004730FD00FD0B132839
:0A002A00FC0B132800000000080082
:1000340083120313DE1B20288813212888175E1BD4
:100044002528081326280817DE1A2A2888122B28A0
:1000540088165E1A2F2808123028081652183428D9
:10006400061535280611061403200610DE193C284F
:1000740088133D2888175E19412808134228081759
:10008400DE1846288812472888165E184B2808125E
:100094004C28081652185028061551280611061423
:1000A40003200610521C58280D2059280620080049
:1000B4008312031352105D08DE001A205214080044
:1000C40083160313981868280000622883125908BD
:0400D4009900080087
:0E00D8008312031355088A00540882000800A2
:1000E6008528803083120313D9009828C030D900A0
:1000F60098289430D9009828D430D9009828803090
:10010600D9009828831203135908013A0319742851
:100116005908023A031979285908033A03197C2821
:100126005908043A03197F2882285A03F00059080F
:10013600F0077008D9007008DE001A205210DC01A2
:100146005C085B07840000080319B1285C085B079C
:1001560084000008DD005A20DC0AA3285214080097
:10016600C528803083120313D600D828C030D600A5
:10017600D8289430D600D828D430D600D828803055
:10018600D600D828831203135608013A0319B42857
:100196005608023A0319B9285608033A0319BC2827
:1001A6005608043A0319BF28C2285703F000560818
:1001B600F0077008D60052147008DE001A2052109C
:0A01C6005808DE001A205214080049
:1001D000831603139816903083129800831687179E
:1001E000071383128C1EF7281A08F000F128080064
:1001F000013083120313DE001A200130D9000130D0
:10020000DA003030DB0073200B30FB002630FC00BE
:100210005D30FD00FD0B0A29FC0B0A29FB0B0A29A6
:0C022000000000000130DE001A20080081
:0E022C000030831203138C1A0130F00008001A
:10023A00831603130610061108128812081388136E
:10024A0083120610061188130813881208120D204B
:10025A000D200D20881608160614032006100D20FE
:10026A000614032006100D200614032006100D2084
:10027A0008120614032006100D2006140320061087
:10028A00881288170614032006100D2088130816F2
:10029A0006140320061008120614032006100D2067
:1002AA0006140320061008160614032006100D2053
:1002BA00081206140320061088170817881608164D
:0C02CA000614032006100D20521408003A
:1002D600831203131A08F100981C732918121816B2
:0602E6007108F0000800A1
:1002EC006C208A110A128000840AD40A0319D50AD8
:0802FC00F003031D7629080040
:1003040083120313D801560884000008D700570845
:10031400003A031997295708D9006220D80A5808C7
:0C032400560784000008D7008929080053
:10033000543083120313A0007930A1007030A20062
:100340006930A3006E30A4006730A5002030A600FD
:100350005730A7006930A8007430A9006830AA009F
:100360002030AB005530AC005330AD004230AE0011
:10037000AF015430B0007930B1007030B200693054
:10038000B3006E30B4006730B5002030B60057308F
:10039000B7006930B8007430B9006830BA00203056
:1003A000BB005530BC005330BD004230BE00BF0121
:1003B0003330831699001815E8200F308316880013
:1003C000D73086001D210C30DE001A200130DE00FF
:1003D0001A20F8202030D60082210D30D90062206A
:1003E0001621700803194D2A6B217008D10070087E
:1003F000D9006220203051020130031C0030F1008E
:1004000051087E3C0130031C0030F0007108F005FB
:100410000319102A5308403E840051088000D30A73
:1004200051080D3A031D4D2A4008413A031D2A2A5E
:100430000130D3005308103C031C2A2A0130D60097
:100440005308D7005308403E84000008D800B3206A
:10045000D30A1A2A4008423A031D402A0130D30029
:100460005308103C031C402A0230D6005308D70022
:100470005308403E84000008D800B320D30A302A35
:10048000D3015308103C031C4C2A5308403E8400FF
:0E04900020308000D30A412AD301F0294E2AE1
:02400E004A2F37
:00000001FF
