:040000008A159A289B
:0E000600213083120313FD00FD0B07280800B4
:100014000F3083120313FC004730FD00FD0B102842
:0A002400FC0B10280000000008008B
:06002E00000000000800C4
:1000340083120317971B2028061021280614171B68
:100044002528861026288614971A2A2806112B2874
:100054000615171A2F2886113028861503135A18E7
:100064003528061736280613061617200612031716
:1000740097193E2806103F2806141719432886109E
:100084004428861497184828061149280615171875
:100094004D2886114E28861503135A18532806171F
:1000A400542806130616172006125A1C5B280A2029
:0600B4005C280320080097
:1000BA0083120317960396031608003C03186A284E
:1000CA009603000000000000612800000000000004
:0600DA0000000000080018
:1000E00083120313F801F9011030FC00710DF80DB3
:1000F000F90D7408F8027508031C750FF90203184E
:1001000088287408F80775080318750FF907031095
:0A011000F00DF10DFC0B762808003D
:10011A00710DF80DF90D7408F8027508031C750FB6
:10012A00F902F00DF10D0F30FC00710DF80DF90D0B
:10013A007408701CA628F8027508031C750FF902CA
:10014A00AB28F80775080318750FF907F00DF10DBC
:10015A00FC0B9A287018B7287408F8077508031852
:08016A00750FF9070000080001
:1001720083120313FB01FA01F901F801A001730DC7
:10018200F80D7408F8027508031C750FF902760859
:10019200031C760FFA027708031C770FFB0200019B
:1001A200031C0130A002F30D0730FC00730DF80DA3
:1001B200F90DFA0DFB0DA00D7408731CF228F8025C
:1001C2007508031C750FF9027608031C760FFA02F4
:1001D2007708031C770FFB020001031C0130A00209
:1001E2000329F80775080318750FF907760803182D
:1001F200760FFA0777080318770FFB070001031839
:100202000130A007F30DFC0BD728720DF80DF90D84
:10021200FA0DFB0DA00D7408731C2129F802750854
:10022200031C750FF9027608031C760FFA02770891
:10023200031C770FFB020001031C0130A0023229CC
:10024200F80775080318750FF90776080318760F73
:10025200FA0777080318770FFB070001031801302C
:10026200A007F20D0730FC00720DF80DF90DFA0D22
:10027200FB0DA00D7408721C5029F8027508031CAE
:10028200750FF9027608031C760FFA027708031C31
:10029200770FFB020001031C0130A0026129F8075D
:1002A20075080318750FF90776080318760FFA0711
:1002B20077080318770FFB07000103180130A00726
:1002C200F20DFC0B3529710DF80DF90DFA0DFB0D30
:1002D200A00D7408721C7F29F8027508031C750FA3
:1002E200F9027608031C760FFA027708031C770FCF
:1002F200FB020001031C0130A0029029F8077508D7
:100302000318750FF90776080318760FFA077708AE
:100312000318770FFB07000103180130A007F10D46
:100322000730FC00710DF80DF90DFA0DFB0DA00D53
:100332007408711CAE29F8027508031C750FF902C6
:100342007608031C760FFA027708031C770FFB026C
:100352000001031C0130A002BF29F8077508031829
:10036200750FF90776080318760FFA07770803184E
:10037200770FFB07000103180130A007F10DFC0BFA
:100382009329700DF80DF90DFA0DFB0DA00D7408EF
:10039200711CDD29F8027508031C750FF902760835
:1003A200031C760FFA027708031C770FFB02000189
:1003B200031C0130A002EE29F80775080318750F17
:1003C200F90776080318760FFA0777080318770FEC
:1003D200FB07000103180130A007F00D0730FC00F5
:1003E200700DF80DF90DFA0DFB0DA00D7408701CBF
:1003F2000C2AF8027508031C750FF9027608031C13
:10040200760FFA027708031C770FFB020001031C28
:100412000130A0021D2AF80775080318750FF907A5
:1004220076080318760FFA0777080318770FFB0789
:10043200000103180130A007F00DFC0BF129701820
:10044200302A7408F80775080318750FF90776083B
:100452000318760FFA0777080318770FFB070800CF
:10046200831203135A100317160897001A205A14FE
:02047200080080
:10047400831203132230FC00F801F901FA01FB0195
:10048400FC030319702A0310FB0CFA0CF90CF80C8A
:10049400F30CF20CF10CF00C031C422AFC030319BC
:1004A400622A7408F80775080318750FF9077608A7
:1004B4000318760FFA0777080318770FFB07462A05
:1004C4007408F80775080318750FF90776080318F8
:0E04D400760FFA0777080318770FFB0708006A
:1004E200403083120313F0001F30F100F201F301D8
:0204F200080000
:1004F400831203137408003A031D892A7508003A0D
:10050400031D892AFF30F0007F30F100E22A8312B4
:100514000313FD01F901F801710870040319003493
:1005240071087506FA00FA1BFD09FB01F51F9F2AE5
:10053400F409F509F40A0319F50AF11FA62AF009CA
:10054400F109F00A0319F10A71087504FA00FA1B9B
:10055400BB2A8D207B18CE2AFD1F0034F009F10937
:10056400F00A0319F10AF809F909F80A0319F90A52
:100574000034F51FCA2AF11BC62A7108F900700855
:10058400F800F101F001AE2AF101F001F00A0034A3
:10059400F109F009FB0AAB2AF80A0319F90A7408ED
:1005A4007802031DAE2A75087902031DAE2AF901EB
:1005B400F801F00A0319F10AF11FAE2A0000FF3412
:0205C40008002D
:1005C6007122E830F4000330F500F601F7013A2213
:1005D600700803179200710893007208940073085C
:1005E6009500831603136A08F4006B08F500F601FC
:1005F600F701B9207008031792007108930072087A
:100606009400730895007008F5007108F6007208EA
:10061600F7007308F800F80CF70CF60CF50CF81355
:10062600F80CF70CF60CF50CF8137508F0007608C4
:10063600F1007708F2007808F300F30CF20CF10CE5
:10064600F00CF313700883160313EE007108EF0025
:10065600712283166C08F4006D08F500F601F701A7
:100666003A2283166E08F9006F08FA00FB01FC01B6
:100676000330F8007908F4007A08F5007B08F600E4
:100686007C08F700780803194F2BF40DF50DF60DCD
:10069600F70D7410FF3E462BB92070080317920021
:1006A6007108930072089400730895000A30F400EC
:1006B6000030F500831603136E08F0006F08F10092
:1006C600702070088316EE007108EF00003071028A
:1006D600031D6F2B033070020318722BDA2B63088D
:1006E6008400831203171508003C031D842B14088D
:1006F600003C031D842B1308003C031D842B1208A9
:10070600003C0318D72B83160313620880046F0876
:100716000319A32B831203179001910100301102D4
:10072600031D9B2B831603136F08831203171002F6
:100736000318A32B96015D20900A0319910A912BA9
:10074600831603136E088312031796005D200313A6
:100756006F08800583166F080319C72B83120317CA
:100766009001910100301102031DBF2B8316031364
:100776006F088312031710020318C72B96015D201A
:10078600900A0319910AB52B831603136E08831278
:10079600031796005D2001309202031C9302031C8E
:1007A6009402031C9502742B03136F08800508003E
:1007B600ED2B803083160313EA00002CC030EA00CC
:1007C600002C9430EA00002CD430EA00002C803053
:1007D600EA00002C831603136A08013A0319DC2B7E
:1007E6006A08023A0319E12B6A08033A0319E42B53
:1007F6006A08043A0319E72BEA2B6B03F0006A0830
:10080600F0077008EA0070088312031797001A2091
:100816005A108316ED016D086C0784000008031951
:100826001F2C6D086C0784000008831203179600BE
:0E08360031228316ED0A0E2C83125A1408008C
:1008440083120313FB01FA01F9018030F800F10C63
:10085400F00C031C362C7408F90775080318750F7F
:10086400FA070318FB0A0310F01F3E2C7408FA075A
:1008740075080318750FFB07FB0CFA0CF90CF80C40
:10088400031C292C7B08F3007A08F2007908F10094
:060894007808F0000800E6
:10089A005F2C803083160313EA00722CC030EA0002
:1008AA00722C9430EA00722CD430EA00722C803018
:1008BA00EA00722C831603136A08013A03194E2CB4
:1008CA006A08023A0319532C6A08033A0319562C88
:1008DA006A08043A0319592C5C2C6B03F0006A0865
:1008EA00F0077008EA0083125A1470080317970079
:1008FA001A205A1083166C088312031797001A20BD
:04090A005A14080073
:0E090E008312031358088A005708820008005D
:10091C0083160313EB016B086A07840000080319A4
:10092C00A22C6B086A078400000883120317960038
:0A093C0031228316EB0A912C08000B
:10094600023083120313FC004930FD00FD0BA92C75
:0A095600FC0BA92C000000000800B3
:10096000A03083160313EA000F30EB006430EC0074
:080970000030ED00E322080055
:1009780083120313F501403075020318C92C75085A
:10098800A03E84008001F50ABF2C0230FB008630AF
:10099800FC009930FD00FD0BCF2CFC0BCF2CFB0B82
:1009A800CF2C071587150330FD00FD0BD92C8711B7
:1009B8000711F501403075020318122DF4010830B3
:1009C80074020318102D87150330FD00FD0BEA2C67
:1009D8007508A03EF300730884000008F20072084E
:1009E800F000F00D70107308840070088000871CF8
:1009F800092D7508A03EF10071088400013000043B
:100A0800F000710884007008800087110330FD0031
:0E0A1800FD0B0C2DF40AE32CF50ADE2C080071
:100A260083160313E9016508F1000130F00071082F
:100A36000319212DF00D7010FF3E1B2D7008E800E4
:100A46006408840070080005F10071080130031D78
:100A56000030F0006708F00603194A2D6608003CCE
:100A660003183A2DA324A3248316E603312D640824
:100A7600840068080005F10071080130031D00308C
:100A8600F0006708F00603194A2DFF30E9006908EF
:040A9600F000080064
:100A9A0001308312031797001A2001308316EA00E7
:100AAA000130EB003E30EC00DB2302308316EA0013
:0C0ABA000130EB004D30EC00DB230800A5
:100AC60001308312031797001A2001308316EA00BB
:100AD6000130EB002130EC00DB2302308316EA0004
:100AE6000130EB003030EC00DB23E830F40003305B
:100AF600F50083166008F0006108F1007A220A30DA
:100B0600F4000030F5007A227808F0007908F10048
:100B16008030F200803071067202031D942D700839
:100B2600003C0318012E02308316EA000930EB0060
:100B3600E830F4000330F5006008F0006108F100C9
:100B46007A220A30F4000030F5007A227808F000A4
:100B56007908F100303070078316EC004D2402301E
:100B66008316EA000A30EB006430F4000030F5002A
:100B76006008F0006108F1007A220A30F4000030C3
:100B8600F5007A227808F0007908F1003030700715
:100B96008316EC004D2402308316EA000B30EB007E
:100BA6000A30F4000030F5006008F0006108F1003A
:100BB6007A220A30F4000030F5007A227808F00034
:100BC6007908F100303070078316EC004D240230AE
:100BD6008316EA000C30EB000A30F4000030F50012
:100BE6006008F0006108F1007A227808F0007908C0
:100BF600F100303070078316EC004D24E830F40025
:100C06000330F50083166008F0006108F1007A22CF
:100C16000A30F4000030F5007A227808F0007908EE
:100C2600F10000307106031D1A2E00307006031DF8
:100C3600272F6430F4000030F50083166008F000BA
:100C46006108F1007A220A30F4000030F5007A22B9
:100C56007808F0007908F1008030F20080307106E3
:100C66007202031D382E7008003C0318892E0230CC
:100C76008316EA000930EB006430F4000030F5001A
:100C86006008F0006108F1007A220A30F4000030B2
:100C9600F5007A227808F0007908F1003030700704
:100CA6008316EC004D2402308316EA000A30EB006E
:100CB6000A30F4000030F5006008F0006108F10029
:100CC6007A220A30F4000030F5007A227808F00023
:100CD6007908F100303070078316EC004D2402309D
:100CE6008316EA000B30EB000A30F4000030F50002
:100CF6006008F0006108F1007A227808F0007908AF
:100D0600F100303070078316EC004D246430F40097
:100D16000030F50083166008F0006108F1007A22C1
:100D26000A30F4000030F5007A227808F0007908DD
:100D3600F10000307106031DA22E00307006031D5F
:100D4600272F0A30F4000030F50083166008F00003
:100D56006108F1007A220A30F4000030F5007A22A8
:100D66007808F0007908F1008030F20080307106D2
:100D76007202031DC02E7008003C0318F52E0230C7
:100D86008316EA000930EB000A30F4000030F50063
:100D96006008F0006108F1007A220A30F4000030A1
:100DA600F5007A227808F0007908F10030307007F3
:100DB6008316EC004D2402308316EA000A30EB005D
:100DC6000A30F4000030F5006008F0006108F10018
:100DD6007A227808F0007908F1003030700783161F
:100DE600EC004D240A30F4000030F500831660084C
:100DF600F0006108F1007A220A30F4000030F500B4
:100E06007A227808F0007908F10000307106031D97
:100E16000E2F00307006031D272F02308316EA00BE
:100E26000930EB000A30F4000030F5006008F000ED
:100E36006108F1007A227808F0007908F100303074
:100E460070078316EC004D2439308316EA008E2491
:020E5600080092
:100E580087248A110A128000840AD70A0319D80A3B
:080E6800F003031D2C2F08000C
:100E70008316031306120613861106118610061038
:100E800083120612061306108610061186110A2018
:100E90000A200A20061586150616172006120A20B3
:100EA0000616172006120A200616172006120A2018
:100EB00086110616172006120A200616172006129B
:100EC000061106140616172006120A2006108615AB
:100ED00006161720061286110616172006120A207B
:100EE00006161720061286150616172006120A2067
:100EF0008611061617200612061486140615861586
:0C0F00000616172006120A205A140800DA
:100F0C00D03083160313EA000730EB006430EC009A
:080F1C000030ED00E3220800A3
:100F2400831603136408E3006508F1000130F00040
:100F340071080319A12FF00D7010FF3E9B2F70084C
:100F4400E200F00970088312EF0080308316640712
:0E0F5400840070088005841370088005080072
:100FD00021308400363083120313F000B130D70083
:080FE0000730D8002C2708009F
:1010000083160313E001E1018312E101E201DF0134
:10101000E001DD01DE01DB01DC0103308316E600C7
:101020000930E5000D30650203184F28E40108304F
:10103000640203184C286508A03E84000008F200F2
:10104000721C3B286608F000F00D701070085B3EC3
:10105000F200720884000008013EF000003003181E
:10106000013E840A0007F1007208840070088000C5
:101070007108840A80006508A03EF30073088400AC
:101080000008F2007208F000F00CF01373088400FE
:1010900070088000E40A1728E603E50A12280930E0
:1010A000F00083126108F3006208F400700803196D
:1010B0005E28F30DF40D7310FF3E5728831206309F
:1010C000F2005F08F0006008F100720803196D2853
:1010D000F00DF10D7010FF3E662883127008F307C3
:1010E00071080318013EF4075D08F0005E08F10086
:1010F000F00DF10D7010F00DF10D7010F00DF10DFF
:1011000070107308F00774080318013EF1075B08BC
:10111000F0075C080318013EF1073230F40000309C
:10112000F5008A1122248A1570088316E0007108E0
:04113000E1000800D2
:101134008A11E8278A15F330831603138700FE30DB
:1011440088008A1138278A150130031797008A11FD
:101154001A208A150C30031797008A111A208A1551
:10116400FE30880008308316E400E5018A119227D6
:101174008A158A1186278A158A114D258A158312A4
:101184008711071108308316E4000130E5000130AF
:10119400E6000130E7008A1113258A157008031947
:1011A400D62801308312D900831259080319F42870
:1011B40008308316E4000130E5000130E600E70161
:1011C4008A1113258A1570080319F4288A11B0248A
:1011D4008A158A11BC248A1500208A1163258A1570
:0811E4008312D901C128F5288E
:100F6200543465346C344334613472346434203420
:0E0F72005234653461346434653472340034B2
:100F80004334723465346434693474343A3420340C
:020F900000342B
:0A0F92005234693461346C340034C9
:100F9C00543465346C3443346134723464342034E6
:0E0FAC00523465346134643465347234003478
:100FBA005034723465347334733420344B346534AA
:040FCA007934003442
:00000001FF
