:040000008A15002835
:06000600000000000800EC
:0E000C00213083120313FD00FD0B0A280800AB
:10001A000F3083120313FC004730FD00FD0B132839
:0A002A00FC0B132800000000080082
:1000340083120313F801F9011030FC00710DF80D5F
:10004400F90D7408F8027508031C750FF9020318FA
:1000540032287408F80775080318750FF907031098
:0A006400F00DF10DFC0B2028080040
:10006E007B15FB1F41280130F300F201F101F00175
:08007E00FA0DF20CFF3008003E
:1000860083120313EE03EE036E08003C0318502898
:10009600EE030000000000004728000000000000FA
:0600A6000000000008004C
:0E00AC00F201F101F001F801F301003008004B
:0800BA00FA1FF21300300800E8
:1000C200831203132230FC00F801F901FA01FB014B
:1000D200FC03031997280310FB0CFA0CF90CF80C1B
:1000E200F30CF20CF10CF00C031C6928FC0303194D
:1000F20089287408F80775080318750FF907760838
:100102000318760FFA0777080318770FFB076D2895
:100112007408F80775080318750FF90776080318AD
:0E012200760FFA0777080318770FFB0708001F
:10013000403083120313F0001F30F100F201F3018D
:020140000800B5
:1001420083120313EE1BA7280610A82806146E1BA1
:10015200AC288610AD288614EE1AB1280611B228F2
:1001620006156E1AB6288611B72886155819BB28A7
:100172000617BC280613061603200612EE19C3281A
:100182000610C42806146E19C8288610C9288614B9
:10019200EE18CD280611CE2806156E18D228861123
:1001A200D32886155819D7280617D82806130616F5
:1001B20003200612581DDF280D20E0280620080023
:1001C20083120313FB01FA01F901F801A001730D77
:1001D200F80D7408F8027508031C750FF902760809
:1001E200031C760FFA027708031C770FFB0200014B
:1001F200031C0130A002F30D0730FC00730DF80D53
:10020200F90DFA0DFB0DA00D7408731C1A29F802E2
:100212007508031C750FF9027608031C760FFA02A3
:100222007708031C770FFB020001031C0130A002B8
:100232002B29F80775080318750FF90776080318B4
:10024200760FFA0777080318770FFB0700010318E8
:100252000130A007F30DFC0BFF28720DF80DF90D0C
:10026200FA0DFB0DA00D7408731C4929F8027508DC
:10027200031C750FF9027608031C760FFA02770841
:10028200031C770FFB020001031C0130A0025A2954
:10029200F80775080318750FF90776080318760F23
:1002A200FA0777080318770FFB07000103180130DC
:1002B200A007F20D0730FC00720DF80DF90DFA0DD2
:1002C200FB0DA00D7408721C7829F8027508031C36
:1002D200750FF9027608031C760FFA027708031CE1
:1002E200770FFB020001031C0130A0028929F807E5
:1002F20075080318750FF90776080318760FFA07C1
:1003020077080318770FFB07000103180130A007D5
:10031200F20DFC0B5D29710DF80DF90DFA0DFB0DB7
:10032200A00D7408721CA729F8027508031C750F2A
:10033200F9027608031C760FFA027708031C770F7E
:10034200FB020001031C0130A002B829F80775085E
:100352000318750FF90776080318760FFA0777085E
:100362000318770FFB07000103180130A007F10DF6
:100372000730FC00710DF80DF90DFA0DFB0DA00D03
:100382007408711CD629F8027508031C750FF9024E
:100392007608031C760FFA027708031C770FFB021C
:1003A2000001031C0130A002E729F80775080318B1
:1003B200750FF90776080318760FFA0777080318FE
:1003C200770FFB07000103180130A007F10DFC0BAA
:1003D200BB29700DF80DF90DFA0DFB0DA00D740877
:1003E200711C052AF8027508031C750FF9027608BC
:1003F200031C760FFA027708031C770FFB02000139
:10040200031C0130A002162AF80775080318750F9D
:10041200F90776080318760FFA0777080318770F9B
:10042200FB07000103180130A007F00D0730FC00A4
:10043200700DF80DF90DFA0DFB0DA00D7408701C6E
:10044200342AF8027508031C750FF9027608031C9A
:10045200760FFA027708031C770FFB020001031CD8
:100462000130A002452AF80775080318750FF9072D
:1004720076080318760FFA0777080318770FFB0739
:10048200000103180130A007F00DFC0B192A7018A7
:10049200582A7408F80775080318750FF9077608C3
:1004A2000318760FFA0777080318770FFB0708007F
:1004B200A1017208031D6E2A7108F2007008F10092
:1004C200F001A1157208031D6E2A7108F200F101F4
:1004D200A1112116720803197C2A2108F302031DB7
:1004E200031C802A0310F21B842AF00DF10DF20D79
:1004F200F30B742A802A0130FC005620872A02302E
:0E050200FC003720872A0430FC005D20080032
:100510009820E830F4000330F500F601F70161207F
:1005200070088316A0007108A1007208A200730869
:10053000A30083126608F4006708F500F601F701CE
:10054000E12070088316A0007108A1007208A200C3
:100550007308A3007008F5007108F6007208F70030
:100560007308F800F80CF70CF60CF50CF813F80CFF
:10057000F70CF60CF50CF8137508F0007608F1008E
:100580007708F2007808F300F30CF20CF10CF00C91
:10059000F31370088312EA007108EB0098206808D2
:1005A000F4006908F500F601F70161206A08F90016
:1005B0006B08FA00FB01FC010330F8007908F40035
:1005C0007A08F5007B08F6007C08F7007808031924
:1005D000F02AF40DF50DF60DF70D7410FF3EE72A25
:1005E000E12070088316A0007108A1007208A20023
:1005F0007308A3000A30F4000030F50083126A0883
:10060000F0006B08F1001A207008EA007108EB0096
:1006100000307102031D0E2B033070020318112BE2
:10062000622B5D08840083162308003C031D222BE7
:100630002208003C031D222B2108003C031D222B15
:100640002008003C03185F2B83125C0880046B08B1
:1006500003193A2BEC01ED0100306D02031D322B22
:100660006B086C0203183A2BEE014320EC0A0319C5
:10067000ED0A2C2B6A08EE0043205B0880056B080E
:100680000319522BEC01ED0100306D02031D4A2BC2
:100690006B086C020318522BEE014320EC0A03197D
:1006A000ED0A442B6A08EE00432001308316A002B5
:1006B000031CA102031CA202031CA302132B83121E
:0606C0005B088005080044
:1006C6007B14FB1F6E2BF201FA1FFF30F200F100C4
:0A06D600F000FA0DF20CFF300800EE
:1006E0000E3083120313FD00FD0B742B0000080075
:1006F000FB14FB1F822BFF30F300F200F100F0002F
:08070000FA0DF20CFF300800B5
:100708008312031358116608EE00A120581508003B
:100718009E2B803083120313E200B12BC030E2001D
:10072800B12B9430E200B12BD430E200B12B8030F1
:10073800E200B12B831203136208013A03198D2BCF
:100748006208023A0319922B6208033A0319952B9F
:100758006208043A0319982B9B2B6303F000620884
:10076800F0077008E2007008EE00A1205811E501BA
:1007780065086407840000080319CA2B6508640724
:1007880084000008E6008423E50ABC2B58150800FD
:1007980083120313620803178D0083168C130C143D
:0807A80083120C08F0000800A8
:1007B000831203137008F8007108F000F101F201D0
:1007C000F301FB01FC019630F300FA017008F1001F
:0C07D0007808F000F801F201592208003E
:1007DC00831203139F01C0309F043609F000700888
:1007EC0083169F051F179F1783126208F000F00DE8
:1007FC007010F00D7010F00D701070089F041F1425
:10080C0070231F151F1D0C2C0000082C1F101E0818
:10081C00F100F00183161E08F0040030F10408000A
:0E082C00831203135A088A005908820008003C
:10083A0083120313E30163086207840000080319A3
:10084A002E2C6308620784000008E6008423E30A6A
:04085A00202C080046
:10085E00E83083120313E6000330E7009630E80019
:06086E00E90188220800E8
:10087400203083120313E6000330E7001E30E80043
:080884000030E90088220800A1
:10088C0083120313FB01FC01FA0173080319852C75
:10089C00F2178E30F302F31B562C0319562C882CAE
:1008AC00F309F30A08307302031C6B2CF300F10DEF
:1008BC007208F100F20108307302031C6B2CF10D6D
:1008CC00F1017308031D0310732C73080319732CA7
:1008DC000310F20CF10CF30B6E2C7B1B711C7D2C9A
:1008EC00031C7D2CF10A0319F20AF21B942CFA1F3B
:1008FC00972CF209F109F10A0319F20A972CF2016B
:10090C00F101972C7B14FB1F9A2CF201FA1F9A2CE5
:10091C00FF30F200F100FA0DF20C9A2C0130FC00C1
:10092C009C2C0030FC009C2CFF30FC00FC080319B4
:0E093C00A02C63237108F0007208F10008007F
:10094A0083120313FB017308031D77080319FC2C98
:10095A0072087606FA007708F3077E30031CB92C72
:10096A00F3020318FF2CBC2CF302031C022D72089D
:10097A00F8007108FC007008FD00F817F61703105C
:10098A00F201F101F0011830A1007D1CD62C740887
:10099A00F00775080318750FF10776080318760F24
:1009AA00F207F20CF10CF00CF80CFC0CFD0C031025
:1009BA00A10BCA2CF21BE62CF80DF00DF10DF20D6D
:1009CA00F3037B1B701CF82CF81FF82CF00A031990
:1009DA00F10A0319F20A031DF82CF20CF10CF00CBF
:1009EA00F30A0319FF2CFA1FF2130030042D013009
:1009FA005620042D02307823042D043037200000BD
:020A0A000800E2
:100A0C0083120313FB01FA01F9018030F800F10C99
:100A1C00F00C031C1A2D7408F90775080318750FD0
:100A2C00FA070318FB0A0310F01F222D7408FA07AB
:100A3C0075080318750FFB07FB0CFA0CF90CF80C76
:100A4C00031C0D2D7B08F3007A08F2007908F100E5
:060A5C007808F00008001C
:100A6200831603178C1C372D0000312D83120313BC
:100A7200620803178D000313630803178C008316A3
:100A82008C130C150B08F0008B1355308D00AA3017
:100A92008D008C14F01B4F2D8B13502D8B170C11C6
:020AA20008004A
:100AA400803083120313EE00A1202E30E2001D24B7
:100AB4006430F4000030F5005E08F0005F08F100D7
:100AC4001A207008DE007108DF000A30F4000030DC
:100AD400F5001A200A30F4000030F5001A207808D6
:100AE400F0007908F10030307007E60084232E30DE
:100AF400E60084230A30F4000030F5005E08F000BC
:100B04005F08F1001A207808F0007908F10030300D
:100B14007007E60084235230E2001D24581C9B2DEC
:100B2400D8189B2DC030EE00A1204230E2001D24D5
:100B3400D72DC030EE00A1203730E2001D246430F0
:100B4400F4000030F5006008F0006108F1001A209C
:100B54007008E0007108E1000A30F4000030F5008C
:100B64001A200A30F4000030F5001A207808F0004A
:100B74007908F10030307007E60084232E30E60057
:100B840084230A30F4000030F5006008F0006108A6
:100B9400F1001A207808F0007908F100303070076D
:0C0BA400E60084235530E2001D24080008
:100BB000831203132208A4002308A500C8302202D0
:100BC000AA000030031C013E2302AB0029082302C7
:100BD000031DEC2D280822020318F02D5814F92DBE
:100BE0002B082902031DF62D2A0828020318F92DC7
:100BF0005810581C012ED818012E07173A242F24FC
:0A0C0000042E5818042E07130800F4
:100C0A0083120313D818132ED81407130130E200E5
:100C1A001030E3002C30E4008C231D2ED81C1D2E2E
:100C2A00D8100130E2001030E3002630E4008C23B3
:020C3A000800B0
:100C3C00A03083120313E6000F30E7006430E800A5
:080C4C000030E90088220800D5
:100C54006430831203132207F10023080318013EB2
:100C6400F2007108A2007208A3007208133C031D6D
:100C74003D2E7108883C0318412EA201A3010800EF
:100C8400831203135E08E200EE23D8230030F4003D
:100C94004030F5001C30F6008130F700A5244624CE
:020CA400080046
:100CA60016248A110A128000840AD90A0319DA0A5C
:080CB600F003031D532E08009A
:100CBE0083120313DE01DF010130E200CC23700842
:100CCE000313DE00DF015E08F0005F08F100643000
:100CDE00F4000030F50006257008DE007108DF0014
:020CEE000800FC
:100CF000831203135E08DD005F08F1000130F0008D
:100D000071080319872EF00D7010FF3E812E7008B8
:100D1000DC00F0097008DB0080305E07840070089A
:0A0D200080058413700880050800A8
:100D2A00643083120313F4000030F5005E08F0000B
:100D3A005F08F1001A207008DE007108DF00013038
:0A0D4A00E2007008E3003125080004
:100D54008316031306120613861106118610061055
:100D640083120612061306108610061186110D2032
:100D74000D200D20061586150616032006120D20DB
:100D84000616032006120D200616032006120D2057
:100D940086110616032006120D20061603200612DD
:100DA400061106140616032006120D2006108615D9
:100DB40006160320061286110616032006120D20BD
:100DC40006160320061286150616032006120D20A9
:100DD40086110616032006120614861406158615B7
:0C0DE4000616032006120D20581508000A
:100DF0006430831203132202F1000030031C013E11
:100E00002302F2007108A2007208A3007208133CCA
:100E1000031D0C2F7108883C0318122F8830A20084
:060E20001330A3000800DE
:100E940022308400363083120313F0001330D9005B
:080EA4000730DA0053260800B4
:101000008A114A278A158A11AA268A150130EE000C
:101010008A11A1208A150C30EE008A11A1208A15B0
:10102000803083169F00FF308500FF308800AF308E
:101030008700AF30831287000713D811D8105810DB
:101040000730DE000430DF008A1178268A158A1105
:101050002F248A158A115F268A157008A20071084C
:10106000A3000130DE008A1142268A157008A8000C
:101070007108A9007008DE007108DF002208E00096
:101080002308E1008A1152258A158A11D8258A156C
:1010900088185F28D8195F284E30FC00EB30FD001F
:1010A000FD0B5028FC0B502888185F28D8195F28A2
:1010B000D8158A112F248A158A1105268A15881CAD
:1010C0006228D811081992284E30FC00EB30FD0040
:1010D000FD0B6828FC0B6828081992288A111E2627
:1010E0008A158A112A268A152208DE002308DF00C5
:1010F0008A1195268A15831203132808DE00290811
:10110000DF002208E0002308E1008A1152258A1539
:101110008230FC00DD30FD00FD0B8C28FC0B8C28A0
:1011200000000000081D62280818C4284E30FC008A
:10113000EB30FD00FD0B9A28FC0B9A280818C428F8
:101140008A111E268A158A11F8268A152208DE00C1
:101150002308DF008A1195268A15831203132808B5
:10116000DE002908DF002208E0002308E1008A11E0
:1011700052258A158230FC00DD30FD00FD0BBE28B3
:10118000FC0BBE2800000000081C94283128C7284A
:040E26000034003460
:040E2A00003400345C
:040E2E002034003438
:040E32000034003454
:040E36000034003450
:040E3A0058340034F4
:100E3E0049346E347034753474343A34203400349A
:020E4E000F345F
:100E500053346534743470346F3469346E3474349C
:060E60003A342034003496
:100E66002A342A342A342A34203441346C34613406
:100E760072346D3420342A342A342A342A34003425
:060E860076342034003434
:060E8C007634203400342E
:00000001FF
