:10000000B601A128A70006100611061183160610D6
:10001000061106110F30880583122708B6182E28FE
:100020003A30A10098305F203330A60042201330D0
:10003000A10088305F20422064305E20422064307E
:100040005E202230A600422028302D200C302D20AA
:1000500006302D20B61427082E283614A600361C8C
:100060003C280611033C031C412841200730A10015
:10007000D0305F20031408003614FE3C03199C287E
:100080000615361C361006140F3088052608F03980
:1000900088040610A60E3618422832305E2003145B
:1000A0000800A301A200FF30A207031CA307031C42
:1000B0009C280330A100E3305F205328A101F43EC7
:1000C000A000A109FE30031C6828A00703186528BA
:1000D000A0076400A10F6528000020186F282018D1
:1000E00071280800A101A301A20002308128A1010A
:1000F000A301A20003308128A101A301A2000630C0
:100100008128A80023082102031D88282208200234
:10011000043003180130031902302805031DFF3095
:100120009C280038031DFF300405031DFF309C2868
:100130000404031DFF309C288313031383126400FF
:100140000800FE308A01022001308A01022054306A
:100150008A01022079308A01022070308A0102204F
:1001600069308A0102206E308A01022067308A01DC
:10017000022020308A01022057308A010220693093
:100180008A01022074308A01022068308A0102202C
:1001900020308A01022055308A01022053308A0122
:1001A000022042308A0102208316BF3087000C30C3
:1001B0009900831290309800903098008316203078
:1001C000980083120330A300E8308A015220FE30E9
:1001D0008A01022001308A0102200130CD00640032
:1001E00011304D028A110A12031800294D083C3EB5
:1001F000840020308000CD0A8A110A12031DEF28E6
:10020000CD018A110A12102164004E08003C8A11A7
:100210000A12031901298A110A1219218A010129D6
:10022000CE0164008A110A128C1E18291A08CE0009
:10023000080064008A110A120C1E19294E08990040
:100240004E08A00020308A017720B2004E08A0009E
:100250007F308A017C20B4003208840034088A018F
:100260009120B400B5006400340835048A110A12E4
:10027000031940294D083C3E84004E088000CD0AF9
:1002800064004E080D3C8A110A12031DBE293C0869
:10029000A00041308A017220B2003C08A000613009
:1002A0008A017220B4003208840034088A01982040
:1002B000B400B5006400340835048A110A12031929
:1002C0008229FE308A01022002308A010220013098
:1002D000CD00640011304D028A110A1203188229E0
:1002E0004D083C3E84000008B20032088A0102201A
:1002F0004D083C3E840020308000CD0A8A110A124D
:10030000031D69293C08A00042308A017220B20016
:100310003C08A00062308A017220B40032088400D8
:1003200034088A019820B400B5006400340835040C
:100330008A110A120319BD29FE308A010220C03039
:100340008A0102200130CD00640011304D028A1173
:100350000A120318BD294D083C3E84000008B20073
:1003600032088A0102204D083C3E84002030800083
:10037000CD0A8A110A12031DA429CD0108006300C9
:040380008A01BF2906
:02400E00753FFC
:00000001FF
